{
    "_format": "hh-sol-artifact-1",
    "contractName": "AsciiChainEvalNFT",
    "sourceName": "contracts/AsciiNFT_on-chain.sol",
    "abi": [
        {
            "inputs": [
                {
                    "internalType": "string",
                    "name": "name_",
                    "type": "string"
                },
                {
                    "internalType": "string",
                    "name": "symbol_",
                    "type": "string"
                },
                {
                    "internalType": "uint256",
                    "name": "price_",
                    "type": "uint256"
                },
                {
                    "internalType": "uint256",
                    "name": "supply_",
                    "type": "uint256"
                }
            ],
            "stateMutability": "nonpayable",
            "type": "constructor"
        },
        {
            "anonymous": false,
            "inputs": [
                {
                    "indexed": true,
                    "internalType": "address",
                    "name": "owner",
                    "type": "address"
                },
                {
                    "indexed": true,
                    "internalType": "address",
                    "name": "approved",
                    "type": "address"
                },
                {
                    "indexed": true,
                    "internalType": "uint256",
                    "name": "tokenId",
                    "type": "uint256"
                }
            ],
            "name": "Approval",
            "type": "event"
        },
        {
            "anonymous": false,
            "inputs": [
                {
                    "indexed": true,
                    "internalType": "address",
                    "name": "owner",
                    "type": "address"
                },
                {
                    "indexed": true,
                    "internalType": "address",
                    "name": "operator",
                    "type": "address"
                },
                {
                    "indexed": false,
                    "internalType": "bool",
                    "name": "approved",
                    "type": "bool"
                }
            ],
            "name": "ApprovalForAll",
            "type": "event"
        },
        {
            "anonymous": false,
            "inputs": [
                {
                    "indexed": false,
                    "internalType": "uint256",
                    "name": "gaslimit",
                    "type": "uint256"
                },
                {
                    "indexed": false,
                    "internalType": "uint256",
                    "name": "baseFee",
                    "type": "uint256"
                },
                {
                    "indexed": false,
                    "internalType": "uint256",
                    "name": "gasPrice",
                    "type": "uint256"
                },
                {
                    "indexed": false,
                    "internalType": "uint256",
                    "name": "chainId",
                    "type": "uint256"
                },
                {
                    "indexed": true,
                    "internalType": "address",
                    "name": "caller",
                    "type": "address"
                }
            ],
            "name": "ChainMetrics",
            "type": "event"
        },
        {
            "anonymous": false,
            "inputs": [
                {
                    "indexed": true,
                    "internalType": "address",
                    "name": "previousOwner",
                    "type": "address"
                },
                {
                    "indexed": true,
                    "internalType": "address",
                    "name": "newOwner",
                    "type": "address"
                }
            ],
            "name": "OwnershipTransferred",
            "type": "event"
        },
        {
            "anonymous": false,
            "inputs": [
                {
                    "indexed": true,
                    "internalType": "address",
                    "name": "from",
                    "type": "address"
                },
                {
                    "indexed": true,
                    "internalType": "address",
                    "name": "to",
                    "type": "address"
                },
                {
                    "indexed": true,
                    "internalType": "uint256",
                    "name": "tokenId",
                    "type": "uint256"
                }
            ],
            "name": "Transfer",
            "type": "event"
        },
        {
            "stateMutability": "payable",
            "type": "fallback"
        },
        {
            "inputs": [
                {
                    "internalType": "address",
                    "name": "to",
                    "type": "address"
                },
                {
                    "internalType": "uint256",
                    "name": "tokenId",
                    "type": "uint256"
                }
            ],
            "name": "approve",
            "outputs": [],
            "stateMutability": "nonpayable",
            "type": "function"
        },
        {
            "inputs": [
                {
                    "internalType": "address",
                    "name": "owner",
                    "type": "address"
                }
            ],
            "name": "balanceOf",
            "outputs": [
                {
                    "internalType": "uint256",
                    "name": "",
                    "type": "uint256"
                }
            ],
            "stateMutability": "view",
            "type": "function"
        },
        {
            "inputs": [
                {
                    "internalType": "uint256",
                    "name": "tokenId",
                    "type": "uint256"
                }
            ],
            "name": "getApproved",
            "outputs": [
                {
                    "internalType": "address",
                    "name": "",
                    "type": "address"
                }
            ],
            "stateMutability": "view",
            "type": "function"
        },
        {
            "inputs": [
                {
                    "internalType": "uint256",
                    "name": "tokenId",
                    "type": "uint256"
                }
            ],
            "name": "getMetrics",
            "outputs": [
                {
                    "components": [
                        {
                            "internalType": "uint256",
                            "name": "time",
                            "type": "uint256"
                        },
                        {
                            "internalType": "uint256",
                            "name": "gaslimit",
                            "type": "uint256"
                        },
                        {
                            "internalType": "uint256",
                            "name": "baseFee",
                            "type": "uint256"
                        },
                        {
                            "internalType": "uint256",
                            "name": "gasPrice",
                            "type": "uint256"
                        },
                        {
                            "internalType": "uint256",
                            "name": "priorityFee",
                            "type": "uint256"
                        },
                        {
                            "internalType": "uint256",
                            "name": "chainId",
                            "type": "uint256"
                        },
                        {
                            "internalType": "uint256",
                            "name": "diskSize",
                            "type": "uint256"
                        },
                        {
                            "internalType": "uint256",
                            "name": "txThroughput",
                            "type": "uint256"
                        },
                        {
                            "internalType": "uint256",
                            "name": "archiveSize",
                            "type": "uint256"
                        }
                    ],
                    "internalType": "struct AsciiChainEvalNFT.Metrics",
                    "name": "",
                    "type": "tuple"
                }
            ],
            "stateMutability": "view",
            "type": "function"
        },
        {
            "inputs": [
                {
                    "internalType": "address",
                    "name": "owner",
                    "type": "address"
                },
                {
                    "internalType": "address",
                    "name": "operator",
                    "type": "address"
                }
            ],
            "name": "isApprovedForAll",
            "outputs": [
                {
                    "internalType": "bool",
                    "name": "",
                    "type": "bool"
                }
            ],
            "stateMutability": "view",
            "type": "function"
        },
        {
            "inputs": [],
            "name": "maxSupply",
            "outputs": [
                {
                    "internalType": "uint256",
                    "name": "",
                    "type": "uint256"
                }
            ],
            "stateMutability": "view",
            "type": "function"
        },
        {
            "inputs": [],
            "name": "mintPrice",
            "outputs": [
                {
                    "internalType": "uint256",
                    "name": "",
                    "type": "uint256"
                }
            ],
            "stateMutability": "view",
            "type": "function"
        },
        {
            "inputs": [
                {
                    "internalType": "address",
                    "name": "",
                    "type": "address"
                }
            ],
            "name": "minters",
            "outputs": [
                {
                    "internalType": "bool",
                    "name": "",
                    "type": "bool"
                }
            ],
            "stateMutability": "view",
            "type": "function"
        },
        {
            "inputs": [],
            "name": "name",
            "outputs": [
                {
                    "internalType": "string",
                    "name": "",
                    "type": "string"
                }
            ],
            "stateMutability": "view",
            "type": "function"
        },
        {
            "inputs": [],
            "name": "owner",
            "outputs": [
                {
                    "internalType": "address",
                    "name": "",
                    "type": "address"
                }
            ],
            "stateMutability": "view",
            "type": "function"
        },
        {
            "inputs": [
                {
                    "internalType": "uint256",
                    "name": "tokenId",
                    "type": "uint256"
                }
            ],
            "name": "ownerOf",
            "outputs": [
                {
                    "internalType": "address",
                    "name": "",
                    "type": "address"
                }
            ],
            "stateMutability": "view",
            "type": "function"
        },
        {
            "inputs": [],
            "name": "renounceOwnership",
            "outputs": [],
            "stateMutability": "nonpayable",
            "type": "function"
        },
        {
            "inputs": [
                {
                    "internalType": "address",
                    "name": "to",
                    "type": "address"
                }
            ],
            "name": "safeMintWithMetrics",
            "outputs": [],
            "stateMutability": "payable",
            "type": "function"
        },
        {
            "inputs": [
                {
                    "internalType": "address",
                    "name": "to",
                    "type": "address"
                },
                {
                    "internalType": "uint256",
                    "name": "time",
                    "type": "uint256"
                },
                {
                    "internalType": "uint256",
                    "name": "gaslimit",
                    "type": "uint256"
                },
                {
                    "internalType": "uint256",
                    "name": "baseFee",
                    "type": "uint256"
                },
                {
                    "internalType": "uint256",
                    "name": "gasPrice",
                    "type": "uint256"
                },
                {
                    "internalType": "uint256",
                    "name": "priorityFee",
                    "type": "uint256"
                },
                {
                    "internalType": "uint256",
                    "name": "chainId",
                    "type": "uint256"
                },
                {
                    "internalType": "uint256",
                    "name": "diskSize",
                    "type": "uint256"
                },
                {
                    "internalType": "uint256",
                    "name": "txThroughput",
                    "type": "uint256"
                },
                {
                    "internalType": "uint256",
                    "name": "archiveSize",
                    "type": "uint256"
                }
            ],
            "name": "safeMintWithParams",
            "outputs": [],
            "stateMutability": "payable",
            "type": "function"
        },
        {
            "inputs": [
                {
                    "internalType": "address",
                    "name": "from",
                    "type": "address"
                },
                {
                    "internalType": "address",
                    "name": "to",
                    "type": "address"
                },
                {
                    "internalType": "uint256",
                    "name": "tokenId",
                    "type": "uint256"
                }
            ],
            "name": "safeTransferFrom",
            "outputs": [],
            "stateMutability": "nonpayable",
            "type": "function"
        },
        {
            "inputs": [
                {
                    "internalType": "address",
                    "name": "from",
                    "type": "address"
                },
                {
                    "internalType": "address",
                    "name": "to",
                    "type": "address"
                },
                {
                    "internalType": "uint256",
                    "name": "tokenId",
                    "type": "uint256"
                },
                {
                    "internalType": "bytes",
                    "name": "data",
                    "type": "bytes"
                }
            ],
            "name": "safeTransferFrom",
            "outputs": [],
            "stateMutability": "nonpayable",
            "type": "function"
        },
        {
            "inputs": [
                {
                    "internalType": "address",
                    "name": "operator",
                    "type": "address"
                },
                {
                    "internalType": "bool",
                    "name": "approved",
                    "type": "bool"
                }
            ],
            "name": "setApprovalForAll",
            "outputs": [],
            "stateMutability": "nonpayable",
            "type": "function"
        },
        {
            "inputs": [
                {
                    "internalType": "address",
                    "name": "who",
                    "type": "address"
                },
                {
                    "internalType": "bool",
                    "name": "allowed",
                    "type": "bool"
                }
            ],
            "name": "setMinter",
            "outputs": [],
            "stateMutability": "nonpayable",
            "type": "function"
        },
        {
            "inputs": [
                {
                    "internalType": "bytes4",
                    "name": "interfaceId",
                    "type": "bytes4"
                }
            ],
            "name": "supportsInterface",
            "outputs": [
                {
                    "internalType": "bool",
                    "name": "",
                    "type": "bool"
                }
            ],
            "stateMutability": "view",
            "type": "function"
        },
        {
            "inputs": [],
            "name": "symbol",
            "outputs": [
                {
                    "internalType": "string",
                    "name": "",
                    "type": "string"
                }
            ],
            "stateMutability": "view",
            "type": "function"
        },
        {
            "inputs": [
                {
                    "internalType": "uint256",
                    "name": "tokenId",
                    "type": "uint256"
                }
            ],
            "name": "tokenURI",
            "outputs": [
                {
                    "internalType": "string",
                    "name": "",
                    "type": "string"
                }
            ],
            "stateMutability": "view",
            "type": "function"
        },
        {
            "inputs": [
                {
                    "internalType": "address",
                    "name": "from",
                    "type": "address"
                },
                {
                    "internalType": "address",
                    "name": "to",
                    "type": "address"
                },
                {
                    "internalType": "uint256",
                    "name": "tokenId",
                    "type": "uint256"
                }
            ],
            "name": "transferFrom",
            "outputs": [],
            "stateMutability": "nonpayable",
            "type": "function"
        },
        {
            "inputs": [
                {
                    "internalType": "address",
                    "name": "newOwner",
                    "type": "address"
                }
            ],
            "name": "transferOwnership",
            "outputs": [],
            "stateMutability": "nonpayable",
            "type": "function"
        },
        {
            "inputs": [],
            "name": "withdraw",
            "outputs": [],
            "stateMutability": "nonpayable",
            "type": "function"
        },
        {
            "stateMutability": "payable",
            "type": "receive"
        }
    ],
    "bytecode": "0x60806040523461039c5761276580380380610019816103a1565b92833981019060808183031261039c5780516001600160401b03811161039c57826100459183016103c6565b602082015190926001600160401b03821161039c576100659183016103c6565b604082015160609092015183519192916001600160401b0381116102a757600054600181811c91168015610392575b602082101461028757601f811161032e575b50602094601f82116001146102c8579481929394956000926102bd575b50508160011b916000199060031b1c1916176000555b82516001600160401b0381116102a757600154600181811c9116801561029d575b602082101461028757601f8111610222575b506020601f82116001146101bb57819293946000926101b0575b50508160011b916000199060031b1c1916176001555b60068054336001600160a01b0319821681179092556040519391906001600160a01b03167f8be0079c531659141344cd1fd0a4f28419497f9722a3daafe3b4186f6b6457e0600080a360085560095533600052600a6020526040600020600160ff1982541617905561233390816104328239f35b015190503880610126565b601f198216906001600052806000209160005b81811061020a575095836001959697106101f1575b505050811b0160015561013c565b015160001960f88460031b161c191690553880806101e3565b9192602060018192868b0151815501940192016101ce565b60016000527fb10e2d527612073b26eecdfd717e6a320cf44b4afac2b0732d9fcbe2b7fa0cf6601f830160051c8101916020841061027d575b601f0160051c01905b818110610271575061010c565b60008155600101610264565b909150819061025b565b634e487b7160e01b600052602260045260246000fd5b90607f16906100fa565b634e487b7160e01b600052604160045260246000fd5b0151905038806100c3565b601f1982169560008052806000209160005b888110610316575083600195969798106102fd575b505050811b016000556100d9565b015160001960f88460031b161c191690553880806102ef565b919260206001819286850151815501940192016102da565b600080527f290decd9548b62a8d60345a988386fc84ba6bc95484008f6362f93160ef3e563601f830160051c81019160208410610388575b601f0160051c01905b81811061037c57506100a6565b6000815560010161036f565b9091508190610366565b90607f1690610094565b600080fd5b6040519190601f01601f191682016001600160401b038111838210176102a757604052565b81601f8201121561039c578051906001600160401b0382116102a7576103f5601f8301601f19166020016103a1565b928284526020838301011161039c5760005b82811061041c57505060206000918301015290565b8060208092840101518282870101520161040756fe60a0806040526004361015610011575b005b60003560e01c90816301ffc9a71461176c5750806306fdde03146116b1578063081812fc14611693578063095ea7b31461150a57806323b872dd146114e65780633ccfd60b1461149657806342842e0e146114615780636352211e146114315780636817c76c146114135780636b5dbe891461131257806370a082311461127b578063715018a61461121e5780638da5cb5b146111f557806395d89b41146110e95780639a8e449514610fb4578063a22cb46514610eef578063a68f899a14610e55578063b88d4fde14610da7578063c87b56dd146102e7578063cf456ae7146102a7578063d5abeb0114610289578063e985e9c51461022e578063f2fde38b146101665763f46eccc41461012257005b34610161576020366003190112610161576001600160a01b0361014361181f565b16600052600a602052602060ff604060002054166040519015158152f35b600080fd5b346101615760203660031901126101615761017f61181f565b610187611d3d565b6001600160a01b031680156101da57600680546001600160a01b0319811683179091556001600160a01b03167f8be0079c531659141344cd1fd0a4f28419497f9722a3daafe3b4186f6b6457e0600080a3005b60405162461bcd60e51b815260206004820152602660248201527f4f776e61626c653a206e6577206f776e657220697320746865207a65726f206160448201526564647265737360d01b6064820152608490fd5b346101615760403660031901126101615761024761181f565b61024f611835565b9060018060a01b0316600052600560205260406000209060018060a01b0316600052602052602060ff604060002054166040519015158152f35b34610161576000366003190112610161576020600954604051908152f35b346101615761000f6102b836611885565b906102c1611d3d565b60018060a01b0316600052600a60205260406000209060ff801983541691151516179055565b3461016157602036600319011261016157600435600081815260026020526040902054610323906001600160a01b03161515611adf565b611adf565b80600052600b60205260406000209060405161033e816118b4565b8254815260018301549260208201938085526002820154604084015260038201546060840190815262b71b0060048401549260808601938452600585015460a0870152600685015460c0870152600860078601549560e088019687520154610100870152049560018710610d9e575b60328711610d95575b60609560005b888110610d52575085516001811015610d3a57506001905b633b9aca008451049160018310610d31575b60528311610d28575b600587510660040360048111610cb9576040519260a0840184811067ffffffffffffffff821117610d125760408181526080819052929594939261043390826118d1565b6003815262e2a3bf60e81b6020820152835260805180519061045590826118d1565b60038152627151db60e91b602082015260208401526080515161047a608051826118d1565b600381526238a8e960ea1b6020820152608051840152608051516104a0608051826118d1565b600381526201c54760ef1b602082015260608401526080518051906104c590826118d1565b6003815262e2a08160e81b60208201526080840152895187518a5190608051519260208401948552608051840152606083015260808201526080815261050c60a0826118d1565b51902093608051517f3c7465787420783d2231302220793d2232302220786d6c3a73706163653d227060208201526803932b9b2b93b3291160bd1b6080518201527f7374796c653d2277686974652d73706163653a7072653b666f6e742d66616d6960498201527f6c793a6d6f6e6f73706163653b666f6e742d73697a653a313270783b223e00006069820152606781526105a86087826118d1565b946000945b838610610ae057505050505050608051518060208101928381516020819301916105d6926117d7565b810160208101661e17ba32bc3a1f60c91b9052036020016018198101825260070161060190826118d1565b60805151918291602083017f3c73766720786d6c6e733d22687474703a2f2f7777772e77332e6f72672f3230905260805183017f30302f737667222077696474683d2236303022206865696768743d2236303022905260608301601f60f91b9052606183017f3c726563742077696474683d223130302522206865696768743d22313030252290526d103334b6361e9111b3333311179f60911b6081840152519081608f84016106b0926117d7565b8101608f8101651e17b9bb339f60d11b905203608f01601919810182526006016106da90826118d1565b6106e390611f4e565b9460805151978860208101977f646174613a696d6167652f7376672b786d6c3b6261736536342c000000000000895280519081603a84019160200191610728926117d7565b810103603a01601f1981018a5261073f908a6118d1565b610748906120b7565b9051610753906120b7565b915161075e906120b7565b9251610769906120b7565b9351610774906120b7565b945161077f906120b7565b9560805151988998683d913730b6b2911d1160b91b60208b01528051908160298c0191602001916107af926117d7565b890190602982017f222c226465736372697074696f6e223a2241534349492d4576616c204e46543a9052604982017f206f6e2d636861696e206d657472696373202d3e20617274222c0000000000009052681134b6b0b3b2911d1160b91b6063830152519182606c8301610822926117d7565b016029016f222c2261747472696275746573223a5b60801b6043820152605381017f7b2274726169745f74797065223a2262617273222c2276616c7565223a00000090528151918260708301916020019161087c926117d7565b01604301602d8101611f4b60f21b9052602f81017f7b2274726169745f74797065223a2274696d65222c2276616c7565223a000000905281519182604c830191602001916108c9926117d7565b01602d01601f8101611f4b60f21b9052602181017f7b2274726169745f74797065223a226761736c696d6974222c2276616c756522905260418101601d60f91b905281519182604283019160200191610921926117d7565b01601f0160238101611f4b60f21b9052602581017f7b2274726169745f74797065223a226761735072696365222c2276616c756522905260458101601d60f91b905281519182604683019160200191610979926117d7565b0160230160238101611f4b60f21b9052602581017f7b2274726169745f74797065223a227072696f72697479466565222c2276616c9052633ab2911d60e11b6045820152815191826049830191602001916109d3926117d7565b016023016026810162081f4b60ea1b9052602981017f7b2274726169745f74797065223a2274785468726f756768707574222c227661905264363ab2911d60d91b604982015281519182604e83019160200191610a2f926117d7565b0160260160288101607d60f81b905260298101615d7d60f01b905203602801601c1981018252600301610a6290826118d1565b610a6b90611f4e565b608051518091602082017f646174613a6170706c69636174696f6e2f6a736f6e3b6261736536342c000000905280519081603d84019160200191610aae926117d7565b810103603d01601f1981018252610ac590826118d1565b6080515180916020825260208201610adc916117fa565b0390f35b90919293949560606000915b60528310610bec576001925088610b895760086017610b7c926020608051519582610b2088945180928580880191016117d7565b83017f3c747370616e20783d223130222064793d2230656d223e00000000000000000083820152610b5a82518093856037850191016117d7565b0101671e17ba39b830b71f60c11b8382015203016017198101845201826118d1565b965b0194939291906105ad565b60086019610be6926020608051519582610bac88945180928580880191016117d7565b83017f3c747370616e20783d223130222064793d22312e32656d223e0000000000000083820152610b5a82518093856039850191016117d7565b96610b7e565b906080515160208101908682528a60805182015284606082015260608152610c156080826118d1565b5190208460ff603c8360001a061610600014610ccf5760ff87168101809111610cb9576005900690600560ff83161015610ca357610c99611fe060019360051b168a0151916020608051519382610c7586945180928580880191016117d7565b8301610c89825180938580850191016117d7565b010103601f1981018352826118d1565b925b019190610aec565b634e487b7160e01b600052603260045260246000fd5b634e487b7160e01b600052601160045260246000fd5b50600190610d0c8260206080515184610cf182965180928580860191016117d7565b8101600160fd1b838201520301601e198101845201826118d1565b92610c9b565b634e487b7160e01b600052604160045260246000fd5b605292506103ef565b600192506103e6565b6029811115610d4d575060295b906103d4565b610d47565b96600190610d8e82602060405184610d7382965180928580860191016117d7565b8101601f60fa1b838201520301601e198101845201826118d1565b97016103bc565b603296506103b6565b600196506103ad565b3461016157608036600319011261016157610dc061181f565b610dc8611835565b906064359060443567ffffffffffffffff8311610161573660238401121561016157826004013593610df9856118f3565b92610e0760405194856118d1565b858452366024878701011161016157600060208761000f986024610e5099018389013786010152610e40610e3b8433611b1f565b61194d565b610e4b838383611b98565b6122a4565b611f2a565b60203660031901126101615761000f610e6c61181f565b33600052600a602052610e8660ff60406000205416611a22565b60075490610e976009548310611a5f565b610ea5600854341015611aa0565b6040514581524860208201523a60408201524660608201527f4b2ca7b041343bba666be9e1fccba3c096f78ac2dfcbc329f2e81d095fc6e54160803392a260018201600755611d95565b3461016157610efd36611885565b6001600160a01b0390911690338214610f6f57336000526005602052604060002082600052602052610f3f8160406000209060ff801983541691151516179055565b60405190151581527f17307eab39ab6107e8899845ad3d59bd9653f200f220920489ca2b5937696c3160203392a3005b60405162461bcd60e51b815260206004820152601960248201527f4552433732313a20617070726f766520746f2063616c6c6572000000000000006044820152606490fd5b34610161576020366003190112610161576004356000610100604051610fd9816118b4565b8281528260208201528260408201528260608201528260808201528260a08201528260c08201528260e0820152015261102a61031e82600052600260205260018060a01b0360406000205416151590565b600052600b6020526101206040600020604051611046816118b4565b8154918282526001810154602083019081526002820154604084019081526003830154606085019081526004840154906080860191825260058501549260a0870193845260068601549460c08801958652610100600860078901549860e08b01998a52015498019788526040519889525160208901525160408801525160608701525160808601525160a08501525160c08401525160e083015251610100820152f35b346101615760003660031901126101615760405160006001548060011c906001811680156111eb575b6020831081146111d7578285529081156111b35750600114611153575b610adc8361113f818503826118d1565b6040519182916020835260208301906117fa565b91905060016000527fb10e2d527612073b26eecdfd717e6a320cf44b4afac2b0732d9fcbe2b7fa0cf6916000905b8082106111995750909150810160200161113f61112f565b919260018160209254838588010152019101909291611181565b60ff191660208086019190915291151560051b8401909101915061113f905061112f565b634e487b7160e01b84526022600452602484fd5b91607f1691611112565b34610161576000366003190112610161576006546040516001600160a01b039091168152602090f35b3461016157600036600319011261016157611237611d3d565b600680546001600160a01b031981169091556000906001600160a01b03167f8be0079c531659141344cd1fd0a4f28419497f9722a3daafe3b4186f6b6457e08280a3005b34610161576020366003190112610161576001600160a01b0361129c61181f565b1680156112bb5760005260036020526020604060002054604051908152f35b60405162461bcd60e51b815260206004820152602960248201527f4552433732313a2061646472657373207a65726f206973206e6f7420612076616044820152683634b21037bbb732b960b91b6064820152608490fd5b6101403660031901126101615761000f61132a61181f565b33600052600a60205261134460ff60406000205416611a22565b600754906113556009548310611a5f565b611363600854341015611aa0565b60405161136f816118b4565b602435815260086020820160443581526040830160643581526060840160843581526080850160a435815260a086019060c435825260c087019260e435845260e08801946101043586526101008901966101243588528b600052600b602052604060002099518a555160018a015551600289015551600388015551600487015551600586015551600685015551600784015551910155600160075401600755611d95565b34610161576000366003190112610161576020600854604051908152f35b3461016157602036600319011261016157602061144f6004356119fc565b6040516001600160a01b039091168152f35b346101615761000f610e506114753661184b565b90604051926114856020856118d1565b60008452610e40610e3b8433611b1f565b34610161576000366003190112610161576114af611d3d565b600080808060018060a01b036006541647908282156114dd575bf1156114d157005b6040513d6000823e3d90fd5b506108fc6114c9565b346101615761000f6114f73661184b565b91611505610e3b8433611b1f565b611b98565b346101615760403660031901126101615761152361181f565b602435906001600160a01b03611538836119fc565b6001600160a01b0390921691168181146116445780331490811561161f575b50156115b457600082815260046020526040902080546001600160a01b031916821790556001600160a01b0361158c836119fc565b167f8c5be1e5ebec7d5bd14f71427d1e84f3dd0314c0f7b2291e5b200ac8c7c3b925600080a4005b60405162461bcd60e51b815260206004820152603e60248201527f4552433732313a20617070726f76652063616c6c6572206973206e6f7420746f60448201527f6b656e206f776e6572206e6f7220617070726f76656420666f7220616c6c00006064820152608490fd5b600090815260056020908152604080832033845290915290205460ff16905083611557565b60405162461bcd60e51b815260206004820152602160248201527f4552433732313a20617070726f76616c20746f2063757272656e74206f776e656044820152603960f91b6064820152608490fd5b3461016157602036600319011261016157602061144f60043561190f565b3461016157600036600319011261016157604051600080548060011c90600181168015611762575b6020831081146111d7578285529081156111b3575060011461170557610adc8361113f818503826118d1565b60008080527f290decd9548b62a8d60345a988386fc84ba6bc95484008f6362f93160ef3e563939250905b8082106117485750909150810160200161113f61112f565b919260018160209254838588010152019101909291611730565b91607f16916116d9565b34610161576020366003190112610161576004359063ffffffff60e01b8216809203610161576020916380ac58cd60e01b81149081156117c6575b81156117b5575b5015158152f35b6301ffc9a760e01b149050836117ae565b635b5e139f60e01b811491506117a7565b60005b8381106117ea5750506000910152565b81810151838201526020016117da565b90602091611813815180928185528580860191016117d7565b601f01601f1916010190565b600435906001600160a01b038216820361016157565b602435906001600160a01b038216820361016157565b6060906003190112610161576004356001600160a01b038116810361016157906024356001600160a01b0381168103610161579060443590565b6040906003190112610161576004356001600160a01b0381168103610161579060243580151581036101615790565b610120810190811067ffffffffffffffff821117610d1257604052565b90601f8019910116810190811067ffffffffffffffff821117610d1257604052565b67ffffffffffffffff8111610d1257601f01601f191660200190565b600081815260026020526040902054611932906001600160a01b031615156119b0565b6000908152600460205260409020546001600160a01b031690565b1561195457565b60405162461bcd60e51b815260206004820152602e60248201527f4552433732313a2063616c6c6572206973206e6f7420746f6b656e206f776e6560448201526d1c881b9bdc88185c1c1c9bdd995960921b6064820152608490fd5b156119b757565b60405162461bcd60e51b815260206004820152601860248201527f4552433732313a20696e76616c696420746f6b656e20494400000000000000006044820152606490fd5b6000908152600260205260409020546001600160a01b0316611a1f8115156119b0565b90565b15611a2957565b60405162461bcd60e51b815260206004820152600e60248201526d139bdd08185d5d1a1bdc9a5e995960921b6044820152606490fd5b15611a6657565b60405162461bcd60e51b815260206004820152601260248201527145786365656473206d617820737570706c7960701b6044820152606490fd5b15611aa757565b60405162461bcd60e51b815260206004820152601060248201526f092dce6eaccccd2c6d2cadce8408aa8960831b6044820152606490fd5b15611ae657565b60405162461bcd60e51b81526020600482015260116024820152702737b732bc34b9ba32b73a103a37b5b2b760791b6044820152606490fd5b906001600160a01b03611b31826119fc565b6001600160a01b0390931692168281149291908315611b71575b508215611b5757505090565b9091506001600160a01b0390611b6c9061190f565b161490565b909250600052600560205260406000208160005260205260ff604060002054169138611b4b565b90611ba2836119fc565b6001600160a01b039283169216829003611cea576001600160a01b0316908115611c9957600083815260046020526040812080546001600160a01b031916905583906001600160a01b03611bf5836119fc565b167f8c5be1e5ebec7d5bd14f71427d1e84f3dd0314c0f7b2291e5b200ac8c7c3b9258280a480600052600360205260406000208054906000198201918211610cb95755816000526003602052604060002080549060018201809211610cb95755600083815260026020526040812080546001600160a01b031916841790557fddf252ad1be2c89b69c2b068fc378daa952ba7f163c4a11628f55a4df523b3ef9080a4565b60405162461bcd60e51b8152602060048201526024808201527f4552433732313a207472616e7366657220746f20746865207a65726f206164646044820152637265737360e01b6064820152608490fd5b60405162461bcd60e51b815260206004820152602560248201527f4552433732313a207472616e736665722066726f6d20696e636f72726563742060448201526437bbb732b960d91b6064820152608490fd5b6006546001600160a01b03163303611d5157565b606460405162461bcd60e51b815260206004820152602060248201527f4f776e61626c653a2063616c6c6572206973206e6f7420746865206f776e65726044820152fd5b9060209060405190611da783836118d1565b600082526001600160a01b038416938415611e94576000828152600260205260409020546001600160a01b0316611e4f57846000526003845260406000209485549060018201809211610cb9576002610e50968593611e4d995583600052526040600020816bffffffffffffffffffffffff60a01b82541617905560007fddf252ad1be2c89b69c2b068fc378daa952ba7f163c4a11628f55a4df523b3ef8180a4612183565b565b60405162461bcd60e51b815260048101859052601c60248201527f4552433732313a20746f6b656e20616c7265616479206d696e746564000000006044820152606490fd5b6064846040519062461bcd60e51b825280600483015260248201527f4552433732313a206d696e7420746f20746865207a65726f20616464726573736044820152fd5b60809060208152603260208201527f4552433732313a207472616e7366657220746f206e6f6e20455243373231526560408201527131b2b4bb32b91034b6b83632b6b2b73a32b960711b60608201520190565b15611f3157565b60405162461bcd60e51b815280611f4a60048201611ed7565b0390fd5b8051156120a157604051611f636060826118d1565b604081527f4142434445464748494a4b4c4d4e4f505152535455565758595a61626364656660208201527f6768696a6b6c6d6e6f707172737475767778797a303132333435363738392b2f6040820152815160028101809111610cb95760039004600281901b92906001600160fe1b03811603610cb957611ffc611fe6846118f3565b93611ff460405195866118d1565b8085526118f3565b6020840190601f190136823791819082518301915b8281106120515750505060039051068060011461203e57600214612033575090565b603d90600019015390565b50603d9081600019820153600119015390565b60036004919592939501916001603f845182828260121c16880101518453828282600c1c16880101518385015382828260061c168801015160028501531685010151600382015301939190612011565b506040516120b06020826118d1565b6000815290565b801561216357600081805b61214b57506120d0816118f3565b906120de60405192836118d1565b808252601f196120ed826118f3565b013660208401375b80928015612144576000198201918211610cb9578193600a82066030019283603011610cb95784511115610ca357600a9260f81b6001600160f81b03191660001a908401601f015304916120f5565b5050905090565b906000198114610cb9576001600a91019104806120c2565b506040516121726040826118d1565b60018152600360fc1b602082015290565b91823b1561229c576121c9926020926000604051809681958294630a85bd0160e11b845233600485015284602485015260448401526080606484015260848301906117fa565b03926001600160a01b03165af18091600091612252575b509061223c573d15612235573d6121f6816118f3565b9061220460405192836118d1565b81523d6000602083013e5b805190816122305760405162461bcd60e51b815280611f4a60048201611ed7565b602001fd5b606061220f565b6001600160e01b031916630a85bd0160e11b1490565b6020813d602011612294575b8161226b602093836118d1565b810103126122905751906001600160e01b03198216820361228d5750386121e0565b80fd5b5080fd5b3d915061225e565b505050600190565b919290803b156122f4576121c993600060209460405196879586948593630a85bd0160e11b855233600486015260018060a01b0316602485015260448401526080606484015260848301906117fa565b5050505060019056fea26469706673582212209683fb8b240c95eee299caf07753cee44f9492b014bd99b30c76e6d1205cb06664736f6c634300081c0033",
    "linkReferences": {},
    "deployedLinkReferences": {}
}