{
  "_format": "hh-sol-artifact-1",
  "contractName": "AsciiChainNFTWithParams",
  "sourceName": "contracts/AsciiNFT.sol",
  "abi": [
    {
      "inputs": [
        {
          "internalType": "string",
          "name": "name_",
          "type": "string"
        },
        {
          "internalType": "string",
          "name": "symbol_",
          "type": "string"
        },
        {
          "internalType": "uint256",
          "name": "price_",
          "type": "uint256"
        },
        {
          "internalType": "uint256",
          "name": "supply_",
          "type": "uint256"
        }
      ],
      "stateMutability": "nonpayable",
      "type": "constructor"
    },
    {
      "anonymous": false,
      "inputs": [
        {
          "indexed": true,
          "internalType": "address",
          "name": "owner",
          "type": "address"
        },
        {
          "indexed": true,
          "internalType": "address",
          "name": "approved",
          "type": "address"
        },
        {
          "indexed": true,
          "internalType": "uint256",
          "name": "tokenId",
          "type": "uint256"
        }
      ],
      "name": "Approval",
      "type": "event"
    },
    {
      "anonymous": false,
      "inputs": [
        {
          "indexed": true,
          "internalType": "address",
          "name": "owner",
          "type": "address"
        },
        {
          "indexed": true,
          "internalType": "address",
          "name": "operator",
          "type": "address"
        },
        {
          "indexed": false,
          "internalType": "bool",
          "name": "approved",
          "type": "bool"
        }
      ],
      "name": "ApprovalForAll",
      "type": "event"
    },
    {
      "anonymous": false,
      "inputs": [
        {
          "indexed": false,
          "internalType": "uint256",
          "name": "gaslimit",
          "type": "uint256"
        },
        {
          "indexed": false,
          "internalType": "uint256",
          "name": "baseFee",
          "type": "uint256"
        },
        {
          "indexed": false,
          "internalType": "uint256",
          "name": "gasPrice",
          "type": "uint256"
        },
        {
          "indexed": false,
          "internalType": "uint256",
          "name": "chainId",
          "type": "uint256"
        },
        {
          "indexed": true,
          "internalType": "address",
          "name": "caller",
          "type": "address"
        }
      ],
      "name": "ChainMetrics",
      "type": "event"
    },
    {
      "anonymous": false,
      "inputs": [
        {
          "indexed": true,
          "internalType": "address",
          "name": "previousOwner",
          "type": "address"
        },
        {
          "indexed": true,
          "internalType": "address",
          "name": "newOwner",
          "type": "address"
        }
      ],
      "name": "OwnershipTransferred",
      "type": "event"
    },
    {
      "anonymous": false,
      "inputs": [
        {
          "indexed": true,
          "internalType": "address",
          "name": "from",
          "type": "address"
        },
        {
          "indexed": true,
          "internalType": "address",
          "name": "to",
          "type": "address"
        },
        {
          "indexed": true,
          "internalType": "uint256",
          "name": "tokenId",
          "type": "uint256"
        }
      ],
      "name": "Transfer",
      "type": "event"
    },
    {
      "stateMutability": "payable",
      "type": "fallback"
    },
    {
      "inputs": [
        {
          "internalType": "address",
          "name": "to",
          "type": "address"
        },
        {
          "internalType": "uint256",
          "name": "tokenId",
          "type": "uint256"
        }
      ],
      "name": "approve",
      "outputs": [],
      "stateMutability": "nonpayable",
      "type": "function"
    },
    {
      "inputs": [
        {
          "internalType": "address",
          "name": "owner",
          "type": "address"
        }
      ],
      "name": "balanceOf",
      "outputs": [
        {
          "internalType": "uint256",
          "name": "",
          "type": "uint256"
        }
      ],
      "stateMutability": "view",
      "type": "function"
    },
    {
      "inputs": [
        {
          "internalType": "uint256",
          "name": "tokenId",
          "type": "uint256"
        }
      ],
      "name": "getApproved",
      "outputs": [
        {
          "internalType": "address",
          "name": "",
          "type": "address"
        }
      ],
      "stateMutability": "view",
      "type": "function"
    },
    {
      "inputs": [
        {
          "internalType": "uint256",
          "name": "tokenId",
          "type": "uint256"
        }
      ],
      "name": "getArt",
      "outputs": [
        {
          "internalType": "string",
          "name": "",
          "type": "string"
        }
      ],
      "stateMutability": "view",
      "type": "function"
    },
    {
      "inputs": [
        {
          "internalType": "uint256",
          "name": "tokenId",
          "type": "uint256"
        }
      ],
      "name": "getMetrics",
      "outputs": [
        {
          "components": [
            {
              "internalType": "uint256",
              "name": "time",
              "type": "uint256"
            },
            {
              "internalType": "uint256",
              "name": "gaslimit",
              "type": "uint256"
            },
            {
              "internalType": "uint256",
              "name": "baseFee",
              "type": "uint256"
            },
            {
              "internalType": "uint256",
              "name": "gasPrice",
              "type": "uint256"
            },
            {
              "internalType": "uint256",
              "name": "priorityFee",
              "type": "uint256"
            },
            {
              "internalType": "uint256",
              "name": "chainId",
              "type": "uint256"
            },
            {
              "internalType": "uint256",
              "name": "diskSize",
              "type": "uint256"
            },
            {
              "internalType": "uint256",
              "name": "txThroughput",
              "type": "uint256"
            },
            {
              "internalType": "uint256",
              "name": "archiveSize",
              "type": "uint256"
            }
          ],
          "internalType": "struct AsciiChainNFTWithParams.Metrics",
          "name": "",
          "type": "tuple"
        }
      ],
      "stateMutability": "view",
      "type": "function"
    },
    {
      "inputs": [
        {
          "internalType": "address",
          "name": "owner",
          "type": "address"
        },
        {
          "internalType": "address",
          "name": "operator",
          "type": "address"
        }
      ],
      "name": "isApprovedForAll",
      "outputs": [
        {
          "internalType": "bool",
          "name": "",
          "type": "bool"
        }
      ],
      "stateMutability": "view",
      "type": "function"
    },
    {
      "inputs": [],
      "name": "maxSupply",
      "outputs": [
        {
          "internalType": "uint256",
          "name": "",
          "type": "uint256"
        }
      ],
      "stateMutability": "view",
      "type": "function"
    },
    {
      "inputs": [],
      "name": "mintPrice",
      "outputs": [
        {
          "internalType": "uint256",
          "name": "",
          "type": "uint256"
        }
      ],
      "stateMutability": "view",
      "type": "function"
    },
    {
      "inputs": [
        {
          "internalType": "address",
          "name": "",
          "type": "address"
        }
      ],
      "name": "minters",
      "outputs": [
        {
          "internalType": "bool",
          "name": "",
          "type": "bool"
        }
      ],
      "stateMutability": "view",
      "type": "function"
    },
    {
      "inputs": [],
      "name": "name",
      "outputs": [
        {
          "internalType": "string",
          "name": "",
          "type": "string"
        }
      ],
      "stateMutability": "view",
      "type": "function"
    },
    {
      "inputs": [],
      "name": "owner",
      "outputs": [
        {
          "internalType": "address",
          "name": "",
          "type": "address"
        }
      ],
      "stateMutability": "view",
      "type": "function"
    },
    {
      "inputs": [
        {
          "internalType": "uint256",
          "name": "tokenId",
          "type": "uint256"
        }
      ],
      "name": "ownerOf",
      "outputs": [
        {
          "internalType": "address",
          "name": "",
          "type": "address"
        }
      ],
      "stateMutability": "view",
      "type": "function"
    },
    {
      "inputs": [],
      "name": "renounceOwnership",
      "outputs": [],
      "stateMutability": "nonpayable",
      "type": "function"
    },
    {
      "inputs": [
        {
          "internalType": "address",
          "name": "to",
          "type": "address"
        },
        {
          "internalType": "string",
          "name": "art",
          "type": "string"
        }
      ],
      "name": "safeMintWithMetrics",
      "outputs": [],
      "stateMutability": "payable",
      "type": "function"
    },
    {
      "inputs": [
        {
          "internalType": "address",
          "name": "to",
          "type": "address"
        },
        {
          "internalType": "string",
          "name": "art",
          "type": "string"
        },
        {
          "internalType": "uint256",
          "name": "time",
          "type": "uint256"
        },
        {
          "internalType": "uint256",
          "name": "gaslimit",
          "type": "uint256"
        },
        {
          "internalType": "uint256",
          "name": "baseFee",
          "type": "uint256"
        },
        {
          "internalType": "uint256",
          "name": "gasPrice",
          "type": "uint256"
        },
        {
          "internalType": "uint256",
          "name": "priorityFee",
          "type": "uint256"
        },
        {
          "internalType": "uint256",
          "name": "chainId",
          "type": "uint256"
        },
        {
          "internalType": "uint256",
          "name": "diskSize",
          "type": "uint256"
        },
        {
          "internalType": "uint256",
          "name": "txThroughput",
          "type": "uint256"
        },
        {
          "internalType": "uint256",
          "name": "archiveSize",
          "type": "uint256"
        }
      ],
      "name": "safeMintWithParams",
      "outputs": [],
      "stateMutability": "payable",
      "type": "function"
    },
    {
      "inputs": [
        {
          "internalType": "address",
          "name": "from",
          "type": "address"
        },
        {
          "internalType": "address",
          "name": "to",
          "type": "address"
        },
        {
          "internalType": "uint256",
          "name": "tokenId",
          "type": "uint256"
        }
      ],
      "name": "safeTransferFrom",
      "outputs": [],
      "stateMutability": "nonpayable",
      "type": "function"
    },
    {
      "inputs": [
        {
          "internalType": "address",
          "name": "from",
          "type": "address"
        },
        {
          "internalType": "address",
          "name": "to",
          "type": "address"
        },
        {
          "internalType": "uint256",
          "name": "tokenId",
          "type": "uint256"
        },
        {
          "internalType": "bytes",
          "name": "data",
          "type": "bytes"
        }
      ],
      "name": "safeTransferFrom",
      "outputs": [],
      "stateMutability": "nonpayable",
      "type": "function"
    },
    {
      "inputs": [
        {
          "internalType": "address",
          "name": "operator",
          "type": "address"
        },
        {
          "internalType": "bool",
          "name": "approved",
          "type": "bool"
        }
      ],
      "name": "setApprovalForAll",
      "outputs": [],
      "stateMutability": "nonpayable",
      "type": "function"
    },
    {
      "inputs": [
        {
          "internalType": "address",
          "name": "who",
          "type": "address"
        },
        {
          "internalType": "bool",
          "name": "allowed",
          "type": "bool"
        }
      ],
      "name": "setMinter",
      "outputs": [],
      "stateMutability": "nonpayable",
      "type": "function"
    },
    {
      "inputs": [
        {
          "internalType": "bytes4",
          "name": "interfaceId",
          "type": "bytes4"
        }
      ],
      "name": "supportsInterface",
      "outputs": [
        {
          "internalType": "bool",
          "name": "",
          "type": "bool"
        }
      ],
      "stateMutability": "view",
      "type": "function"
    },
    {
      "inputs": [],
      "name": "symbol",
      "outputs": [
        {
          "internalType": "string",
          "name": "",
          "type": "string"
        }
      ],
      "stateMutability": "view",
      "type": "function"
    },
    {
      "inputs": [
        {
          "internalType": "uint256",
          "name": "tokenId",
          "type": "uint256"
        }
      ],
      "name": "tokenURI",
      "outputs": [
        {
          "internalType": "string",
          "name": "",
          "type": "string"
        }
      ],
      "stateMutability": "view",
      "type": "function"
    },
    {
      "inputs": [
        {
          "internalType": "address",
          "name": "from",
          "type": "address"
        },
        {
          "internalType": "address",
          "name": "to",
          "type": "address"
        },
        {
          "internalType": "uint256",
          "name": "tokenId",
          "type": "uint256"
        }
      ],
      "name": "transferFrom",
      "outputs": [],
      "stateMutability": "nonpayable",
      "type": "function"
    },
    {
      "inputs": [
        {
          "internalType": "address",
          "name": "newOwner",
          "type": "address"
        }
      ],
      "name": "transferOwnership",
      "outputs": [],
      "stateMutability": "nonpayable",
      "type": "function"
    },
    {
      "inputs": [],
      "name": "withdraw",
      "outputs": [],
      "stateMutability": "nonpayable",
      "type": "function"
    },
    {
      "stateMutability": "payable",
      "type": "receive"
    }
  ],
  "bytecode": "0x608060405234801561001057600080fd5b50604051614cf7380380614cf78339818101604052810190610032919061035a565b838381600090816100439190610610565b5080600190816100539190610610565b5050506100726100676100e160201b60201c565b6100e960201b60201c565b81600881905550806009819055506001600a60003373ffffffffffffffffffffffffffffffffffffffff1673ffffffffffffffffffffffffffffffffffffffff16815260200190815260200160002060006101000a81548160ff021916908315150217905550505050506106e2565b600033905090565b6000600660009054906101000a900473ffffffffffffffffffffffffffffffffffffffff16905081600660006101000a81548173ffffffffffffffffffffffffffffffffffffffff021916908373ffffffffffffffffffffffffffffffffffffffff1602179055508173ffffffffffffffffffffffffffffffffffffffff168173ffffffffffffffffffffffffffffffffffffffff167f8be0079c531659141344cd1fd0a4f28419497f9722a3daafe3b4186f6b6457e060405160405180910390a35050565b6000604051905090565b600080fd5b600080fd5b600080fd5b600080fd5b6000601f19601f8301169050919050565b7f4e487b7100000000000000000000000000000000000000000000000000000000600052604160045260246000fd5b610216826101cd565b810181811067ffffffffffffffff82111715610235576102346101de565b5b80604052505050565b60006102486101af565b9050610254828261020d565b919050565b600067ffffffffffffffff821115610274576102736101de565b5b61027d826101cd565b9050602081019050919050565b60005b838110156102a857808201518184015260208101905061028d565b60008484015250505050565b60006102c76102c284610259565b61023e565b9050828152602081018484840111156102e3576102e26101c8565b5b6102ee84828561028a565b509392505050565b600082601f83011261030b5761030a6101c3565b5b815161031b8482602086016102b4565b91505092915050565b6000819050919050565b61033781610324565b811461034257600080fd5b50565b6000815190506103548161032e565b92915050565b60008060008060808587031215610374576103736101b9565b5b600085015167ffffffffffffffff811115610392576103916101be565b5b61039e878288016102f6565b945050602085015167ffffffffffffffff8111156103bf576103be6101be565b5b6103cb878288016102f6565b93505060406103dc87828801610345565b92505060606103ed87828801610345565b91505092959194509250565b600081519050919050565b7f4e487b7100000000000000000000000000000000000000000000000000000000600052602260045260246000fd5b6000600282049050600182168061044b57607f821691505b60208210810361045e5761045d610404565b5b50919050565b60008190508160005260206000209050919050565b60006020601f8301049050919050565b600082821b905092915050565b6000600883026104c67fffffffffffffffffffffffffffffffffffffffffffffffffffffffffffffffff82610489565b6104d08683610489565b95508019841693508086168417925050509392505050565b6000819050919050565b600061050d61050861050384610324565b6104e8565b610324565b9050919050565b6000819050919050565b610527836104f2565b61053b61053382610514565b848454610496565b825550505050565b600090565b610550610543565b61055b81848461051e565b505050565b5b8181101561057f57610574600082610548565b600181019050610561565b5050565b601f8211156105c45761059581610464565b61059e84610479565b810160208510156105ad578190505b6105c16105b985610479565b830182610560565b50505b505050565b600082821c905092915050565b60006105e7600019846008026105c9565b1980831691505092915050565b600061060083836105d6565b9150826002028217905092915050565b610619826103f9565b67ffffffffffffffff811115610632576106316101de565b5b61063c8254610433565b610647828285610583565b600060209050601f83116001811461067a5760008415610668578287015190505b61067285826105f4565b8655506106da565b601f19841661068886610464565b60005b828110156106b05784890151825560018201915060208501945060208101905061068b565b868310156106cd57848901516106c9601f8916826105d6565b8355505b6001600288020188555050505b505050505050565b614606806106f16000396000f3fe60806040526004361061016a5760003560e01c80638da5cb5b116100d1578063b88d4fde1161008a578063d5abeb0111610064578063d5abeb0114610520578063e985e9c51461054b578063f2fde38b14610588578063f46eccc4146105b15761016b565b8063b88d4fde14610491578063c87b56dd146104ba578063cf456ae7146104f75761016b565b80638da5cb5b1461039d57806395d89b41146103c85780639a8e4495146103f3578063a22cb46514610430578063a466a71e14610459578063af94ea6a146104755761016b565b806342842e0e1161012357806342842e0e1461027b5780636352211e146102a45780636817c76c146102e157806370a082311461030c578063715018a6146103495780638c4796c7146103605761016b565b806301ffc9a71461016d57806306fdde03146101aa578063081812fc146101d5578063095ea7b31461021257806323b872dd1461023b5780633ccfd60b146102645761016b565b5b005b34801561017957600080fd5b50610194600480360381019061018f9190612568565b6105ee565b6040516101a191906125b0565b60405180910390f35b3480156101b657600080fd5b506101bf6106d0565b6040516101cc919061265b565b60405180910390f35b3480156101e157600080fd5b506101fc60048036038101906101f791906126b3565b610762565b6040516102099190612721565b60405180910390f35b34801561021e57600080fd5b5061023960048036038101906102349190612768565b6107a8565b005b34801561024757600080fd5b50610262600480360381019061025d91906127a8565b6108bf565b005b34801561027057600080fd5b5061027961091f565b005b34801561028757600080fd5b506102a2600480360381019061029d91906127a8565b610977565b005b3480156102b057600080fd5b506102cb60048036038101906102c691906126b3565b610997565b6040516102d89190612721565b60405180910390f35b3480156102ed57600080fd5b506102f6610a48565b604051610303919061280a565b60405180910390f35b34801561031857600080fd5b50610333600480360381019061032e9190612825565b610a4e565b604051610340919061280a565b60405180910390f35b34801561035557600080fd5b5061035e610b05565b005b34801561036c57600080fd5b50610387600480360381019061038291906126b3565b610b19565b604051610394919061265b565b60405180910390f35b3480156103a957600080fd5b506103b2610c06565b6040516103bf9190612721565b60405180910390f35b3480156103d457600080fd5b506103dd610c30565b6040516103ea919061265b565b60405180910390f35b3480156103ff57600080fd5b5061041a600480360381019061041591906126b3565b610cc2565b6040516104279190612918565b60405180910390f35b34801561043c57600080fd5b5061045760048036038101906104529190612960565b610d92565b005b610473600480360381019061046e9190612ad5565b610da8565b005b61048f600480360381019061048a9190612be5565b610fbf565b005b34801561049d57600080fd5b506104b860048036038101906104b39190612ce2565b611170565b005b3480156104c657600080fd5b506104e160048036038101906104dc91906126b3565b6111d2565b6040516104ee919061265b565b60405180910390f35b34801561050357600080fd5b5061051e60048036038101906105199190612960565b61143a565b005b34801561052c57600080fd5b5061053561149d565b604051610542919061280a565b60405180910390f35b34801561055757600080fd5b50610572600480360381019061056d9190612d65565b6114a3565b60405161057f91906125b0565b60405180910390f35b34801561059457600080fd5b506105af60048036038101906105aa9190612825565b611537565b005b3480156105bd57600080fd5b506105d860048036038101906105d39190612825565b6115ba565b6040516105e591906125b0565b60405180910390f35b60007f80ac58cd000000000000000000000000000000000000000000000000000000007bffffffffffffffffffffffffffffffffffffffffffffffffffffffff1916827bffffffffffffffffffffffffffffffffffffffffffffffffffffffff191614806106b957507f5b5e139f000000000000000000000000000000000000000000000000000000007bffffffffffffffffffffffffffffffffffffffffffffffffffffffff1916827bffffffffffffffffffffffffffffffffffffffffffffffffffffffff1916145b806106c957506106c8826115da565b5b9050919050565b6060600080546106df90612dd4565b80601f016020809104026020016040519081016040528092919081815260200182805461070b90612dd4565b80156107585780601f1061072d57610100808354040283529160200191610758565b820191906000526020600020905b81548152906001019060200180831161073b57829003601f168201915b5050505050905090565b600061076d82611644565b6004600083815260200190815260200160002060009054906101000a900473ffffffffffffffffffffffffffffffffffffffff169050919050565b60006107b382610997565b90508073ffffffffffffffffffffffffffffffffffffffff168373ffffffffffffffffffffffffffffffffffffffff1603610823576040517f08c379a000000000000000000000000000000000000000000000000000000000815260040161081a90612e77565b60405180910390fd5b8073ffffffffffffffffffffffffffffffffffffffff1661084261168f565b73ffffffffffffffffffffffffffffffffffffffff16148061087157506108708161086b61168f565b6114a3565b5b6108b0576040517f08c379a00000000000000000000000000000000000000000000000000000000081526004016108a790612f09565b60405180910390fd5b6108ba8383611697565b505050565b6108d06108ca61168f565b82611750565b61090f576040517f08c379a000000000000000000000000000000000000000000000000000000000815260040161090690612f9b565b60405180910390fd5b61091a8383836117e5565b505050565b610927611a4b565b61092f610c06565b73ffffffffffffffffffffffffffffffffffffffff166108fc479081150290604051600060405180830381858888f19350505050158015610974573d6000803e3d6000fd5b50565b61099283838360405180602001604052806000815250611170565b505050565b6000806002600084815260200190815260200160002060009054906101000a900473ffffffffffffffffffffffffffffffffffffffff169050600073ffffffffffffffffffffffffffffffffffffffff168173ffffffffffffffffffffffffffffffffffffffff1603610a3f576040517f08c379a0000000000000000000000000000000000000000000000000000000008152600401610a3690613007565b60405180910390fd5b80915050919050565b60085481565b60008073ffffffffffffffffffffffffffffffffffffffff168273ffffffffffffffffffffffffffffffffffffffff1603610abe576040517f08c379a0000000000000000000000000000000000000000000000000000000008152600401610ab590613099565b60405180910390fd5b600360008373ffffffffffffffffffffffffffffffffffffffff1673ffffffffffffffffffffffffffffffffffffffff168152602001908152602001600020549050919050565b610b0d611a4b565b610b176000611ac9565b565b6060610b2482611b8f565b610b63576040517f08c379a0000000000000000000000000000000000000000000000000000000008152600401610b5a90613105565b60405180910390fd5b600b60008381526020019081526020016000208054610b8190612dd4565b80601f0160208091040260200160405190810160405280929190818152602001828054610bad90612dd4565b8015610bfa5780601f10610bcf57610100808354040283529160200191610bfa565b820191906000526020600020905b815481529060010190602001808311610bdd57829003601f168201915b50505050509050919050565b6000600660009054906101000a900473ffffffffffffffffffffffffffffffffffffffff16905090565b606060018054610c3f90612dd4565b80601f0160208091040260200160405190810160405280929190818152602001828054610c6b90612dd4565b8015610cb85780601f10610c8d57610100808354040283529160200191610cb8565b820191906000526020600020905b815481529060010190602001808311610c9b57829003601f168201915b5050505050905090565b610cca6124b0565b610cd382611b8f565b610d12576040517f08c379a0000000000000000000000000000000000000000000000000000000008152600401610d0990613105565b60405180910390fd5b600c60008381526020019081526020016000206040518061012001604052908160008201548152602001600182015481526020016002820154815260200160038201548152602001600482015481526020016005820154815260200160068201548152602001600782015481526020016008820154815250509050919050565b610da4610d9d61168f565b8383611bfb565b5050565b600a60003373ffffffffffffffffffffffffffffffffffffffff1673ffffffffffffffffffffffffffffffffffffffff16815260200190815260200160002060009054906101000a900460ff16610e34576040517f08c379a0000000000000000000000000000000000000000000000000000000008152600401610e2b90613171565b60405180910390fd5b6000610e406007611d67565b90506009548110610e86576040517f08c379a0000000000000000000000000000000000000000000000000000000008152600401610e7d906131dd565b60405180910390fd5b600854341015610ecb576040517f08c379a0000000000000000000000000000000000000000000000000000000008152600401610ec290613249565b60405180910390fd5b6040518061012001604052808b81526020018a815260200189815260200188815260200187815260200186815260200185815260200184815260200183815250600c6000838152602001908152602001600020600082015181600001556020820151816001015560408201518160020155606082015181600301556080820151816004015560a0820151816005015560c0820151816006015560e082015181600701556101008201518160080155905050610f866007611d75565b610f908c82611d8b565b8a600b60008381526020019081526020016000209081610fb09190613415565b50505050505050505050505050565b600a60003373ffffffffffffffffffffffffffffffffffffffff1673ffffffffffffffffffffffffffffffffffffffff16815260200190815260200160002060009054906101000a900460ff1661104b576040517f08c379a000000000000000000000000000000000000000000000000000000000815260040161104290613171565b60405180910390fd5b60006110576007611d67565b9050600954811061109d576040517f08c379a0000000000000000000000000000000000000000000000000000000008152600401611094906131dd565b60405180910390fd5b6008543410156110e2576040517f08c379a00000000000000000000000000000000000000000000000000000000081526004016110d990613249565b60405180910390fd5b3373ffffffffffffffffffffffffffffffffffffffff167f4b2ca7b041343bba666be9e1fccba3c096f78ac2dfcbc329f2e81d095fc6e54145483a4660405161112e94939291906134e7565b60405180910390a26111406007611d75565b61114a8382611d8b565b81600b6000838152602001908152602001600020908161116a9190613415565b50505050565b61118161117b61168f565b83611750565b6111c0576040517f08c379a00000000000000000000000000000000000000000000000000000000081526004016111b790612f9b565b60405180910390fd5b6111cc84848484611da9565b50505050565b60606111dd82611b8f565b61121c576040517f08c379a000000000000000000000000000000000000000000000000000000000815260040161121390613105565b60405180910390fd5b6000600c600084815260200190815260200160002060405180610120016040529081600082015481526020016001820154815260200160028201548152602001600382015481526020016004820154815260200160058201548152602001600682015481526020016007820154815260200160088201548152505090506000600b600085815260200190815260200160002080546112b990612dd4565b80601f01602080910402602001604051908101604052809291908181526020018280546112e590612dd4565b80156113325780601f1061130757610100808354040283529160200191611332565b820191906000526020600020905b81548152906001019060200180831161131557829003601f168201915b5050505050905060008160405160200161134c91906137c8565b6040516020818303038152906040529050600061136882611e05565b6040516020016113789190613862565b604051602081830303815290604052905060006113936106d0565b61139c88611f68565b836113aa8860000151611f68565b6113b78960200151611f68565b6113c48a60600151611f68565b6113d18b60800151611f68565b6113de8c60e00151611f68565b6040516020016113f5989796959493929190613d44565b604051602081830303815290604052905061140f81611e05565b60405160200161141f9190613eb2565b60405160208183030381529060405295505050505050919050565b611442611a4b565b80600a60008473ffffffffffffffffffffffffffffffffffffffff1673ffffffffffffffffffffffffffffffffffffffff16815260200190815260200160002060006101000a81548160ff0219169083151502179055505050565b60095481565b6000600560008473ffffffffffffffffffffffffffffffffffffffff1673ffffffffffffffffffffffffffffffffffffffff16815260200190815260200160002060008373ffffffffffffffffffffffffffffffffffffffff1673ffffffffffffffffffffffffffffffffffffffff16815260200190815260200160002060009054906101000a900460ff16905092915050565b61153f611a4b565b600073ffffffffffffffffffffffffffffffffffffffff168173ffffffffffffffffffffffffffffffffffffffff16036115ae576040517f08c379a00000000000000000000000000000000000000000000000000000000081526004016115a590613f46565b60405180910390fd5b6115b781611ac9565b50565b600a6020528060005260406000206000915054906101000a900460ff1681565b60007f01ffc9a7000000000000000000000000000000000000000000000000000000007bffffffffffffffffffffffffffffffffffffffffffffffffffffffff1916827bffffffffffffffffffffffffffffffffffffffffffffffffffffffff1916149050919050565b61164d81611b8f565b61168c576040517f08c379a000000000000000000000000000000000000000000000000000000000815260040161168390613007565b60405180910390fd5b50565b600033905090565b816004600083815260200190815260200160002060006101000a81548173ffffffffffffffffffffffffffffffffffffffff021916908373ffffffffffffffffffffffffffffffffffffffff160217905550808273ffffffffffffffffffffffffffffffffffffffff1661170a83610997565b73ffffffffffffffffffffffffffffffffffffffff167f8c5be1e5ebec7d5bd14f71427d1e84f3dd0314c0f7b2291e5b200ac8c7c3b92560405160405180910390a45050565b60008061175c83610997565b90508073ffffffffffffffffffffffffffffffffffffffff168473ffffffffffffffffffffffffffffffffffffffff16148061179e575061179d81856114a3565b5b806117dc57508373ffffffffffffffffffffffffffffffffffffffff166117c484610762565b73ffffffffffffffffffffffffffffffffffffffff16145b91505092915050565b8273ffffffffffffffffffffffffffffffffffffffff1661180582610997565b73ffffffffffffffffffffffffffffffffffffffff161461185b576040517f08c379a000000000000000000000000000000000000000000000000000000000815260040161185290613fd8565b60405180910390fd5b600073ffffffffffffffffffffffffffffffffffffffff168273ffffffffffffffffffffffffffffffffffffffff16036118ca576040517f08c379a00000000000000000000000000000000000000000000000000000000081526004016118c19061406a565b60405180910390fd5b6118d58383836120c8565b6118e0600082611697565b6001600360008573ffffffffffffffffffffffffffffffffffffffff1673ffffffffffffffffffffffffffffffffffffffff168152602001908152602001600020600082825461193091906140b9565b925050819055506001600360008473ffffffffffffffffffffffffffffffffffffffff1673ffffffffffffffffffffffffffffffffffffffff168152602001908152602001600020600082825461198791906140ed565b92505081905550816002600083815260200190815260200160002060006101000a81548173ffffffffffffffffffffffffffffffffffffffff021916908373ffffffffffffffffffffffffffffffffffffffff160217905550808273ffffffffffffffffffffffffffffffffffffffff168473ffffffffffffffffffffffffffffffffffffffff167fddf252ad1be2c89b69c2b068fc378daa952ba7f163c4a11628f55a4df523b3ef60405160405180910390a4611a468383836120cd565b505050565b611a5361168f565b73ffffffffffffffffffffffffffffffffffffffff16611a71610c06565b73ffffffffffffffffffffffffffffffffffffffff1614611ac7576040517f08c379a0000000000000000000000000000000000000000000000000000000008152600401611abe9061416d565b60405180910390fd5b565b6000600660009054906101000a900473ffffffffffffffffffffffffffffffffffffffff16905081600660006101000a81548173ffffffffffffffffffffffffffffffffffffffff021916908373ffffffffffffffffffffffffffffffffffffffff1602179055508173ffffffffffffffffffffffffffffffffffffffff168173ffffffffffffffffffffffffffffffffffffffff167f8be0079c531659141344cd1fd0a4f28419497f9722a3daafe3b4186f6b6457e060405160405180910390a35050565b60008073ffffffffffffffffffffffffffffffffffffffff166002600084815260200190815260200160002060009054906101000a900473ffffffffffffffffffffffffffffffffffffffff1673ffffffffffffffffffffffffffffffffffffffff1614159050919050565b8173ffffffffffffffffffffffffffffffffffffffff168373ffffffffffffffffffffffffffffffffffffffff1603611c69576040517f08c379a0000000000000000000000000000000000000000000000000000000008152600401611c60906141d9565b60405180910390fd5b80600560008573ffffffffffffffffffffffffffffffffffffffff1673ffffffffffffffffffffffffffffffffffffffff16815260200190815260200160002060008473ffffffffffffffffffffffffffffffffffffffff1673ffffffffffffffffffffffffffffffffffffffff16815260200190815260200160002060006101000a81548160ff0219169083151502179055508173ffffffffffffffffffffffffffffffffffffffff168373ffffffffffffffffffffffffffffffffffffffff167f17307eab39ab6107e8899845ad3d59bd9653f200f220920489ca2b5937696c3183604051611d5a91906125b0565b60405180910390a3505050565b600081600001549050919050565b6001816000016000828254019250508190555050565b611da58282604051806020016040528060008152506120d2565b5050565b611db48484846117e5565b611dc08484848461212d565b611dff576040517f08c379a0000000000000000000000000000000000000000000000000000000008152600401611df69061426b565b60405180910390fd5b50505050565b60606000825103611e2757604051806020016040528060008152509050611f63565b60006040518060600160405280604081526020016145916040913990506000600360028551611e5691906140ed565b611e6091906142ba565b6004611e6c91906142eb565b67ffffffffffffffff811115611e8557611e846129aa565b5b6040519080825280601f01601f191660200182016040528015611eb75781602001600182028036833780820191505090505b509050600182016020820185865187015b80821015611f23576003820191508151603f8160121c168501518453600184019350603f81600c1c168501518453600184019350603f8160061c168501518453600184019350603f8116850151845360018401935050611ec8565b5050600386510660018114611f3f5760028114611f5257611f5a565b603d6001830353603d6002830353611f5a565b603d60018303535b50505080925050505b919050565b606060008203611faf576040518060400160405280600181526020017f300000000000000000000000000000000000000000000000000000000000000081525090506120c3565b600082905060005b60008214611fe1578080611fca9061432d565b915050600a82611fda91906142ba565b9150611fb7565b60008167ffffffffffffffff811115611ffd57611ffc6129aa565b5b6040519080825280601f01601f19166020018201604052801561202f5781602001600182028036833780820191505090505b5090505b600085146120bc5760018261204891906140b9565b9150600a856120579190614375565b603061206391906140ed565b60f81b818381518110612079576120786143a6565b5b60200101907effffffffffffffffffffffffffffffffffffffffffffffffffffffffffffff1916908160001a905350600a856120b591906142ba565b9450612033565b8093505050505b919050565b505050565b505050565b6120dc83836122b4565b6120e9600084848461212d565b612128576040517f08c379a000000000000000000000000000000000000000000000000000000000815260040161211f9061426b565b60405180910390fd5b505050565b600061214e8473ffffffffffffffffffffffffffffffffffffffff1661248d565b156122a7578373ffffffffffffffffffffffffffffffffffffffff1663150b7a0261217761168f565b8786866040518563ffffffff1660e01b8152600401612199949392919061442a565b6020604051808303816000875af19250505080156121d557506040513d601f19601f820116820180604052508101906121d2919061448b565b60015b612257573d8060008114612205576040519150601f19603f3d011682016040523d82523d6000602084013e61220a565b606091505b50600081510361224f576040517f08c379a00000000000000000000000000000000000000000000000000000000081526004016122469061426b565b60405180910390fd5b805181602001fd5b63150b7a0260e01b7bffffffffffffffffffffffffffffffffffffffffffffffffffffffff1916817bffffffffffffffffffffffffffffffffffffffffffffffffffffffff1916149150506122ac565b600190505b949350505050565b600073ffffffffffffffffffffffffffffffffffffffff168273ffffffffffffffffffffffffffffffffffffffff1603612323576040517f08c379a000000000000000000000000000000000000000000000000000000000815260040161231a90614504565b60405180910390fd5b61232c81611b8f565b1561236c576040517f08c379a000000000000000000000000000000000000000000000000000000000815260040161236390614570565b60405180910390fd5b612378600083836120c8565b6001600360008473ffffffffffffffffffffffffffffffffffffffff1673ffffffffffffffffffffffffffffffffffffffff16815260200190815260200160002060008282546123c891906140ed565b92505081905550816002600083815260200190815260200160002060006101000a81548173ffffffffffffffffffffffffffffffffffffffff021916908373ffffffffffffffffffffffffffffffffffffffff160217905550808273ffffffffffffffffffffffffffffffffffffffff16600073ffffffffffffffffffffffffffffffffffffffff167fddf252ad1be2c89b69c2b068fc378daa952ba7f163c4a11628f55a4df523b3ef60405160405180910390a4612489600083836120cd565b5050565b6000808273ffffffffffffffffffffffffffffffffffffffff163b119050919050565b6040518061012001604052806000815260200160008152602001600081526020016000815260200160008152602001600081526020016000815260200160008152602001600081525090565b6000604051905090565b600080fd5b600080fd5b60007fffffffff0000000000000000000000000000000000000000000000000000000082169050919050565b61254581612510565b811461255057600080fd5b50565b6000813590506125628161253c565b92915050565b60006020828403121561257e5761257d612506565b5b600061258c84828501612553565b91505092915050565b60008115159050919050565b6125aa81612595565b82525050565b60006020820190506125c560008301846125a1565b92915050565b600081519050919050565b600082825260208201905092915050565b60005b838110156126055780820151818401526020810190506125ea565b60008484015250505050565b6000601f19601f8301169050919050565b600061262d826125cb565b61263781856125d6565b93506126478185602086016125e7565b61265081612611565b840191505092915050565b600060208201905081810360008301526126758184612622565b905092915050565b6000819050919050565b6126908161267d565b811461269b57600080fd5b50565b6000813590506126ad81612687565b92915050565b6000602082840312156126c9576126c8612506565b5b60006126d78482850161269e565b91505092915050565b600073ffffffffffffffffffffffffffffffffffffffff82169050919050565b600061270b826126e0565b9050919050565b61271b81612700565b82525050565b60006020820190506127366000830184612712565b92915050565b61274581612700565b811461275057600080fd5b50565b6000813590506127628161273c565b92915050565b6000806040838503121561277f5761277e612506565b5b600061278d85828601612753565b925050602061279e8582860161269e565b9150509250929050565b6000806000606084860312156127c1576127c0612506565b5b60006127cf86828701612753565b93505060206127e086828701612753565b92505060406127f18682870161269e565b9150509250925092565b6128048161267d565b82525050565b600060208201905061281f60008301846127fb565b92915050565b60006020828403121561283b5761283a612506565b5b600061284984828501612753565b91505092915050565b61285b8161267d565b82525050565b610120820160008201516128786000850182612852565b50602082015161288b6020850182612852565b50604082015161289e6040850182612852565b5060608201516128b16060850182612852565b5060808201516128c46080850182612852565b5060a08201516128d760a0850182612852565b5060c08201516128ea60c0850182612852565b5060e08201516128fd60e0850182612852565b50610100820151612912610100850182612852565b50505050565b60006101208201905061292e6000830184612861565b92915050565b61293d81612595565b811461294857600080fd5b50565b60008135905061295a81612934565b92915050565b6000806040838503121561297757612976612506565b5b600061298585828601612753565b92505060206129968582860161294b565b9150509250929050565b600080fd5b600080fd5b7f4e487b7100000000000000000000000000000000000000000000000000000000600052604160045260246000fd5b6129e282612611565b810181811067ffffffffffffffff82111715612a0157612a006129aa565b5b80604052505050565b6000612a146124fc565b9050612a2082826129d9565b919050565b600067ffffffffffffffff821115612a4057612a3f6129aa565b5b612a4982612611565b9050602081019050919050565b82818337600083830152505050565b6000612a78612a7384612a25565b612a0a565b905082815260208101848484011115612a9457612a936129a5565b5b612a9f848285612a56565b509392505050565b600082601f830112612abc57612abb6129a0565b5b8135612acc848260208601612a65565b91505092915050565b60008060008060008060008060008060006101608c8e031215612afb57612afa612506565b5b6000612b098e828f01612753565b9b505060208c013567ffffffffffffffff811115612b2a57612b2961250b565b5b612b368e828f01612aa7565b9a50506040612b478e828f0161269e565b9950506060612b588e828f0161269e565b9850506080612b698e828f0161269e565b97505060a0612b7a8e828f0161269e565b96505060c0612b8b8e828f0161269e565b95505060e0612b9c8e828f0161269e565b945050610100612bae8e828f0161269e565b935050610120612bc08e828f0161269e565b925050610140612bd28e828f0161269e565b9150509295989b509295989b9093969950565b60008060408385031215612bfc57612bfb612506565b5b6000612c0a85828601612753565b925050602083013567ffffffffffffffff811115612c2b57612c2a61250b565b5b612c3785828601612aa7565b9150509250929050565b600067ffffffffffffffff821115612c5c57612c5b6129aa565b5b612c6582612611565b9050602081019050919050565b6000612c85612c8084612c41565b612a0a565b905082815260208101848484011115612ca157612ca06129a5565b5b612cac848285612a56565b509392505050565b600082601f830112612cc957612cc86129a0565b5b8135612cd9848260208601612c72565b91505092915050565b60008060008060808587031215612cfc57612cfb612506565b5b6000612d0a87828801612753565b9450506020612d1b87828801612753565b9350506040612d2c8782880161269e565b925050606085013567ffffffffffffffff811115612d4d57612d4c61250b565b5b612d5987828801612cb4565b91505092959194509250565b60008060408385031215612d7c57612d7b612506565b5b6000612d8a85828601612753565b9250506020612d9b85828601612753565b9150509250929050565b7f4e487b7100000000000000000000000000000000000000000000000000000000600052602260045260246000fd5b60006002820490506001821680612dec57607f821691505b602082108103612dff57612dfe612da5565b5b50919050565b7f4552433732313a20617070726f76616c20746f2063757272656e74206f776e6560008201527f7200000000000000000000000000000000000000000000000000000000000000602082015250565b6000612e616021836125d6565b9150612e6c82612e05565b604082019050919050565b60006020820190508181036000830152612e9081612e54565b9050919050565b7f4552433732313a20617070726f76652063616c6c6572206973206e6f7420746f60008201527f6b656e206f776e6572206e6f7220617070726f76656420666f7220616c6c0000602082015250565b6000612ef3603e836125d6565b9150612efe82612e97565b604082019050919050565b60006020820190508181036000830152612f2281612ee6565b9050919050565b7f4552433732313a2063616c6c6572206973206e6f7420746f6b656e206f776e6560008201527f72206e6f7220617070726f766564000000000000000000000000000000000000602082015250565b6000612f85602e836125d6565b9150612f9082612f29565b604082019050919050565b60006020820190508181036000830152612fb481612f78565b9050919050565b7f4552433732313a20696e76616c696420746f6b656e2049440000000000000000600082015250565b6000612ff16018836125d6565b9150612ffc82612fbb565b602082019050919050565b6000602082019050818103600083015261302081612fe4565b9050919050565b7f4552433732313a2061646472657373207a65726f206973206e6f74206120766160008201527f6c6964206f776e65720000000000000000000000000000000000000000000000602082015250565b60006130836029836125d6565b915061308e82613027565b604082019050919050565b600060208201905081810360008301526130b281613076565b9050919050565b7f4e6f6e6578697374656e7420746f6b656e000000000000000000000000000000600082015250565b60006130ef6011836125d6565b91506130fa826130b9565b602082019050919050565b6000602082019050818103600083015261311e816130e2565b9050919050565b7f4e6f7420617574686f72697a6564000000000000000000000000000000000000600082015250565b600061315b600e836125d6565b915061316682613125565b602082019050919050565b6000602082019050818103600083015261318a8161314e565b9050919050565b7f45786365656473206d617820737570706c790000000000000000000000000000600082015250565b60006131c76012836125d6565b91506131d282613191565b602082019050919050565b600060208201905081810360008301526131f6816131ba565b9050919050565b7f496e73756666696369656e742045544800000000000000000000000000000000600082015250565b60006132336010836125d6565b915061323e826131fd565b602082019050919050565b6000602082019050818103600083015261326281613226565b9050919050565b60008190508160005260206000209050919050565b60006020601f8301049050919050565b600082821b905092915050565b6000600883026132cb7fffffffffffffffffffffffffffffffffffffffffffffffffffffffffffffffff8261328e565b6132d5868361328e565b95508019841693508086168417925050509392505050565b6000819050919050565b600061331261330d6133088461267d565b6132ed565b61267d565b9050919050565b6000819050919050565b61332c836132f7565b61334061333882613319565b84845461329b565b825550505050565b600090565b613355613348565b613360818484613323565b505050565b5b818110156133845761337960008261334d565b600181019050613366565b5050565b601f8211156133c95761339a81613269565b6133a38461327e565b810160208510156133b2578190505b6133c66133be8561327e565b830182613365565b50505b505050565b600082821c905092915050565b60006133ec600019846008026133ce565b1980831691505092915050565b600061340583836133db565b9150826002028217905092915050565b61341e826125cb565b67ffffffffffffffff811115613437576134366129aa565b5b6134418254612dd4565b61344c828285613388565b600060209050601f83116001811461347f576000841561346d578287015190505b61347785826133f9565b8655506134df565b601f19841661348d86613269565b60005b828110156134b557848901518255600182019150602085019450602081019050613490565b868310156134d257848901516134ce601f8916826133db565b8355505b6001600288020188555050505b505050505050565b60006080820190506134fc60008301876127fb565b61350960208301866127fb565b61351660408301856127fb565b61352360608301846127fb565b95945050505050565b600081905092915050565b7f3c73766720786d6c6e733d22687474703a2f2f7777772e77332e6f72672f323060008201527f30302f737667222077696474683d2236303022206865696768743d223630302260208201527f3e00000000000000000000000000000000000000000000000000000000000000604082015250565b60006135b960418361352c565b91506135c482613537565b604182019050919050565b7f3c7374796c653e746578747b77686974652d73706163653a7072653b666f6e7460008201527f2d66616d696c793a6d6f6e6f73706163653b666f6e742d73697a653a3132707860208201527f3b66696c6c3a233030307d3c2f7374796c653e00000000000000000000000000604082015250565b600061365160538361352c565b915061365c826135cf565b605382019050919050565b7f3c726563742077696474683d223130302522206865696768743d22313030252260008201527f2066696c6c3d2223666666222f3e000000000000000000000000000000000000602082015250565b60006136c3602e8361352c565b91506136ce82613667565b602e82019050919050565b7f3c7465787420783d2231302220793d2232302220786d6c3a73706163653d227060008201527f72657365727665223e0000000000000000000000000000000000000000000000602082015250565b600061373560298361352c565b9150613740826136d9565b602982019050919050565b6000613756826125cb565b613760818561352c565b93506137708185602086016125e7565b80840191505092915050565b7f3c2f746578743e3c2f7376673e00000000000000000000000000000000000000600082015250565b60006137b2600d8361352c565b91506137bd8261377c565b600d82019050919050565b60006137d3826135ac565b91506137de82613644565b91506137e9826136b6565b91506137f482613728565b9150613800828461374b565b915061380b826137a5565b915081905092915050565b7f646174613a696d6167652f7376672b786d6c3b6261736536342c000000000000600082015250565b600061384c601a8361352c565b915061385782613816565b601a82019050919050565b600061386d8261383f565b9150613879828461374b565b915081905092915050565b7f7b226e616d65223a220000000000000000000000000000000000000000000000600082015250565b60006138ba60098361352c565b91506138c582613884565b600982019050919050565b7f2023000000000000000000000000000000000000000000000000000000000000600082015250565b600061390660028361352c565b9150613911826138d0565b600282019050919050565b7f222c226465736372697074696f6e223a22415343494920617274202b206f6e2d60008201527f636861696e2026206f66662d636861696e206d657472696373202b206375737460208201527f6f6d2074696d65222c0000000000000000000000000000000000000000000000604082015250565b600061399e60498361352c565b91506139a98261391c565b604982019050919050565b7f22696d616765223a220000000000000000000000000000000000000000000000600082015250565b60006139ea60098361352c565b91506139f5826139b4565b600982019050919050565b7f222c2261747472696275746573223a5b00000000000000000000000000000000600082015250565b6000613a3660108361352c565b9150613a4182613a00565b601082019050919050565b7f7b2274726169745f74797065223a2274696d65222c2276616c7565223a000000600082015250565b6000613a82601d8361352c565b9150613a8d82613a4c565b601d82019050919050565b7f7d2c000000000000000000000000000000000000000000000000000000000000600082015250565b6000613ace60028361352c565b9150613ad982613a98565b600282019050919050565b7f7b2274726169745f74797065223a226761736c696d6974222c2276616c75652260008201527f3a00000000000000000000000000000000000000000000000000000000000000602082015250565b6000613b4060218361352c565b9150613b4b82613ae4565b602182019050919050565b7f7b2274726169745f74797065223a226761735072696365222c2276616c75652260008201527f3a00000000000000000000000000000000000000000000000000000000000000602082015250565b6000613bb260218361352c565b9150613bbd82613b56565b602182019050919050565b7f7b2274726169745f74797065223a227072696f72697479466565222c2276616c60008201527f7565223a00000000000000000000000000000000000000000000000000000000602082015250565b6000613c2460248361352c565b9150613c2f82613bc8565b602482019050919050565b7f7b2274726169745f74797065223a2274785468726f756768707574222c22766160008201527f6c7565223a000000000000000000000000000000000000000000000000000000602082015250565b6000613c9660258361352c565b9150613ca182613c3a565b602582019050919050565b7f7d00000000000000000000000000000000000000000000000000000000000000600082015250565b6000613ce260018361352c565b9150613ced82613cac565b600182019050919050565b7f5d7d000000000000000000000000000000000000000000000000000000000000600082015250565b6000613d2e60028361352c565b9150613d3982613cf8565b600282019050919050565b6000613d4f826138ad565b9150613d5b828b61374b565b9150613d66826138f9565b9150613d72828a61374b565b9150613d7d82613991565b9150613d88826139dd565b9150613d94828961374b565b9150613d9f82613a29565b9150613daa82613a75565b9150613db6828861374b565b9150613dc182613ac1565b9150613dcc82613b33565b9150613dd8828761374b565b9150613de382613ac1565b9150613dee82613ba5565b9150613dfa828661374b565b9150613e0582613ac1565b9150613e1082613c17565b9150613e1c828561374b565b9150613e2782613ac1565b9150613e3282613c89565b9150613e3e828461374b565b9150613e4982613cd5565b9150613e5482613d21565b91508190509998505050505050505050565b7f646174613a6170706c69636174696f6e2f6a736f6e3b6261736536342c000000600082015250565b6000613e9c601d8361352c565b9150613ea782613e66565b601d82019050919050565b6000613ebd82613e8f565b9150613ec9828461374b565b915081905092915050565b7f4f776e61626c653a206e6577206f776e657220697320746865207a65726f206160008201527f6464726573730000000000000000000000000000000000000000000000000000602082015250565b6000613f306026836125d6565b9150613f3b82613ed4565b604082019050919050565b60006020820190508181036000830152613f5f81613f23565b9050919050565b7f4552433732313a207472616e736665722066726f6d20696e636f72726563742060008201527f6f776e6572000000000000000000000000000000000000000000000000000000602082015250565b6000613fc26025836125d6565b9150613fcd82613f66565b604082019050919050565b60006020820190508181036000830152613ff181613fb5565b9050919050565b7f4552433732313a207472616e7366657220746f20746865207a65726f2061646460008201527f7265737300000000000000000000000000000000000000000000000000000000602082015250565b60006140546024836125d6565b915061405f82613ff8565b604082019050919050565b6000602082019050818103600083015261408381614047565b9050919050565b7f4e487b7100000000000000000000000000000000000000000000000000000000600052601160045260246000fd5b60006140c48261267d565b91506140cf8361267d565b92508282039050818111156140e7576140e661408a565b5b92915050565b60006140f88261267d565b91506141038361267d565b925082820190508082111561411b5761411a61408a565b5b92915050565b7f4f776e61626c653a2063616c6c6572206973206e6f7420746865206f776e6572600082015250565b60006141576020836125d6565b915061416282614121565b602082019050919050565b600060208201905081810360008301526141868161414a565b9050919050565b7f4552433732313a20617070726f766520746f2063616c6c657200000000000000600082015250565b60006141c36019836125d6565b91506141ce8261418d565b602082019050919050565b600060208201905081810360008301526141f2816141b6565b9050919050565b7f4552433732313a207472616e7366657220746f206e6f6e20455243373231526560008201527f63656976657220696d706c656d656e7465720000000000000000000000000000602082015250565b60006142556032836125d6565b9150614260826141f9565b604082019050919050565b6000602082019050818103600083015261428481614248565b9050919050565b7f4e487b7100000000000000000000000000000000000000000000000000000000600052601260045260246000fd5b60006142c58261267d565b91506142d08361267d565b9250826142e0576142df61428b565b5b828204905092915050565b60006142f68261267d565b91506143018361267d565b925082820261430f8161267d565b915082820484148315176143265761432561408a565b5b5092915050565b60006143388261267d565b91507fffffffffffffffffffffffffffffffffffffffffffffffffffffffffffffffff820361436a5761436961408a565b5b600182019050919050565b60006143808261267d565b915061438b8361267d565b92508261439b5761439a61428b565b5b828206905092915050565b7f4e487b7100000000000000000000000000000000000000000000000000000000600052603260045260246000fd5b600081519050919050565b600082825260208201905092915050565b60006143fc826143d5565b61440681856143e0565b93506144168185602086016125e7565b61441f81612611565b840191505092915050565b600060808201905061443f6000830187612712565b61444c6020830186612712565b61445960408301856127fb565b818103606083015261446b81846143f1565b905095945050505050565b6000815190506144858161253c565b92915050565b6000602082840312156144a1576144a0612506565b5b60006144af84828501614476565b91505092915050565b7f4552433732313a206d696e7420746f20746865207a65726f2061646472657373600082015250565b60006144ee6020836125d6565b91506144f9826144b8565b602082019050919050565b6000602082019050818103600083015261451d816144e1565b9050919050565b7f4552433732313a20746f6b656e20616c7265616479206d696e74656400000000600082015250565b600061455a601c836125d6565b915061456582614524565b602082019050919050565b600060208201905081810360008301526145898161454d565b905091905056fe4142434445464748494a4b4c4d4e4f505152535455565758595a6162636465666768696a6b6c6d6e6f707172737475767778797a303132333435363738392b2fa2646970667358221220904988ce7eb71860040512501a4172782fa8a0cd8eb20bda027729fa7206e4ef64736f6c634300081c0033",
  "linkReferences": {},
  "deployedLinkReferences": {}
}